{
  "_format": "hh-sol-artifact-1",
  "contractName": "NFTBusinessCard",
  "sourceName": "contracts/NFTBusinessCard.sol",
  "abi": [
    {
      "inputs": [],
      "stateMutability": "nonpayable",
      "type": "constructor"
    },
    {
      "anonymous": false,
      "inputs": [
        {
          "indexed": true,
          "internalType": "address",
          "name": "owner",
          "type": "address"
        },
        {
          "indexed": true,
          "internalType": "address",
          "name": "approved",
          "type": "address"
        },
        {
          "indexed": true,
          "internalType": "uint256",
          "name": "tokenId",
          "type": "uint256"
        }
      ],
      "name": "Approval",
      "type": "event"
    },
    {
      "anonymous": false,
      "inputs": [
        {
          "indexed": true,
          "internalType": "address",
          "name": "owner",
          "type": "address"
        },
        {
          "indexed": true,
          "internalType": "address",
          "name": "operator",
          "type": "address"
        },
        {
          "indexed": false,
          "internalType": "bool",
          "name": "approved",
          "type": "bool"
        }
      ],
      "name": "ApprovalForAll",
      "type": "event"
    },
    {
      "anonymous": false,
      "inputs": [
        {
          "indexed": true,
          "internalType": "address",
          "name": "from",
          "type": "address"
        },
        {
          "indexed": true,
          "internalType": "address",
          "name": "to",
          "type": "address"
        },
        {
          "indexed": true,
          "internalType": "uint256",
          "name": "tokenId",
          "type": "uint256"
        }
      ],
      "name": "Transfer",
      "type": "event"
    },
    {
      "inputs": [
        {
          "internalType": "address",
          "name": "to",
          "type": "address"
        },
        {
          "internalType": "uint256",
          "name": "tokenId",
          "type": "uint256"
        }
      ],
      "name": "approve",
      "outputs": [],
      "stateMutability": "nonpayable",
      "type": "function"
    },
    {
      "inputs": [
        {
          "internalType": "address",
          "name": "owner",
          "type": "address"
        }
      ],
      "name": "balanceOf",
      "outputs": [
        {
          "internalType": "uint256",
          "name": "",
          "type": "uint256"
        }
      ],
      "stateMutability": "view",
      "type": "function"
    },
    {
      "inputs": [
        {
          "internalType": "string",
          "name": "_tokenURI",
          "type": "string"
        },
        {
          "internalType": "uint256",
          "name": "_price",
          "type": "uint256"
        }
      ],
      "name": "createToken",
      "outputs": [
        {
          "internalType": "uint256",
          "name": "",
          "type": "uint256"
        }
      ],
      "stateMutability": "payable",
      "type": "function"
    },
    {
      "inputs": [
        {
          "internalType": "uint256",
          "name": "tokenId",
          "type": "uint256"
        }
      ],
      "name": "executeSale",
      "outputs": [],
      "stateMutability": "payable",
      "type": "function"
    },
    {
      "inputs": [],
      "name": "getAllNFTs",
      "outputs": [
        {
          "components": [
            {
              "internalType": "uint256",
              "name": "tokenId",
              "type": "uint256"
            },
            {
              "internalType": "address payable",
              "name": "owner",
              "type": "address"
            },
            {
              "internalType": "address payable",
              "name": "seller",
              "type": "address"
            },
            {
              "internalType": "uint256",
              "name": "price",
              "type": "uint256"
            },
            {
              "internalType": "bool",
              "name": "currentlyPublic",
              "type": "bool"
            }
          ],
          "internalType": "struct NFTBusinessCard.BusinessCard[]",
          "name": "",
          "type": "tuple[]"
        }
      ],
      "stateMutability": "view",
      "type": "function"
    },
    {
      "inputs": [
        {
          "internalType": "uint256",
          "name": "tokenId",
          "type": "uint256"
        }
      ],
      "name": "getApproved",
      "outputs": [
        {
          "internalType": "address",
          "name": "",
          "type": "address"
        }
      ],
      "stateMutability": "view",
      "type": "function"
    },
    {
      "inputs": [
        {
          "internalType": "uint256",
          "name": "_tokenId",
          "type": "uint256"
        }
      ],
      "name": "getCardByTokenId",
      "outputs": [
        {
          "components": [
            {
              "internalType": "uint256",
              "name": "tokenId",
              "type": "uint256"
            },
            {
              "internalType": "address payable",
              "name": "owner",
              "type": "address"
            },
            {
              "internalType": "address payable",
              "name": "seller",
              "type": "address"
            },
            {
              "internalType": "uint256",
              "name": "price",
              "type": "uint256"
            },
            {
              "internalType": "bool",
              "name": "currentlyPublic",
              "type": "bool"
            }
          ],
          "internalType": "struct NFTBusinessCard.BusinessCard",
          "name": "",
          "type": "tuple"
        }
      ],
      "stateMutability": "view",
      "type": "function"
    },
    {
      "inputs": [],
      "name": "getCreateFee",
      "outputs": [
        {
          "internalType": "uint256",
          "name": "",
          "type": "uint256"
        }
      ],
      "stateMutability": "view",
      "type": "function"
    },
    {
      "inputs": [],
      "name": "getCurretCard",
      "outputs": [
        {
          "internalType": "uint256",
          "name": "",
          "type": "uint256"
        }
      ],
      "stateMutability": "view",
      "type": "function"
    },
    {
      "inputs": [],
      "name": "getLatestIdToBusinessCard",
      "outputs": [
        {
          "components": [
            {
              "internalType": "uint256",
              "name": "tokenId",
              "type": "uint256"
            },
            {
              "internalType": "address payable",
              "name": "owner",
              "type": "address"
            },
            {
              "internalType": "address payable",
              "name": "seller",
              "type": "address"
            },
            {
              "internalType": "uint256",
              "name": "price",
              "type": "uint256"
            },
            {
              "internalType": "bool",
              "name": "currentlyPublic",
              "type": "bool"
            }
          ],
          "internalType": "struct NFTBusinessCard.BusinessCard",
          "name": "",
          "type": "tuple"
        }
      ],
      "stateMutability": "view",
      "type": "function"
    },
    {
      "inputs": [],
      "name": "getMyNFTs",
      "outputs": [
        {
          "components": [
            {
              "internalType": "uint256",
              "name": "tokenId",
              "type": "uint256"
            },
            {
              "internalType": "address payable",
              "name": "owner",
              "type": "address"
            },
            {
              "internalType": "address payable",
              "name": "seller",
              "type": "address"
            },
            {
              "internalType": "uint256",
              "name": "price",
              "type": "uint256"
            },
            {
              "internalType": "bool",
              "name": "currentlyPublic",
              "type": "bool"
            }
          ],
          "internalType": "struct NFTBusinessCard.BusinessCard[]",
          "name": "",
          "type": "tuple[]"
        }
      ],
      "stateMutability": "view",
      "type": "function"
    },
    {
      "inputs": [
        {
          "internalType": "address",
          "name": "owner",
          "type": "address"
        },
        {
          "internalType": "address",
          "name": "operator",
          "type": "address"
        }
      ],
      "name": "isApprovedForAll",
      "outputs": [
        {
          "internalType": "bool",
          "name": "",
          "type": "bool"
        }
      ],
      "stateMutability": "view",
      "type": "function"
    },
    {
      "inputs": [],
      "name": "name",
      "outputs": [
        {
          "internalType": "string",
          "name": "",
          "type": "string"
        }
      ],
      "stateMutability": "view",
      "type": "function"
    },
    {
      "inputs": [
        {
          "internalType": "uint256",
          "name": "tokenId",
          "type": "uint256"
        }
      ],
      "name": "ownerOf",
      "outputs": [
        {
          "internalType": "address",
          "name": "",
          "type": "address"
        }
      ],
      "stateMutability": "view",
      "type": "function"
    },
    {
      "inputs": [
        {
          "internalType": "address",
          "name": "from",
          "type": "address"
        },
        {
          "internalType": "address",
          "name": "to",
          "type": "address"
        },
        {
          "internalType": "uint256",
          "name": "tokenId",
          "type": "uint256"
        }
      ],
      "name": "safeTransferFrom",
      "outputs": [],
      "stateMutability": "nonpayable",
      "type": "function"
    },
    {
      "inputs": [
        {
          "internalType": "address",
          "name": "from",
          "type": "address"
        },
        {
          "internalType": "address",
          "name": "to",
          "type": "address"
        },
        {
          "internalType": "uint256",
          "name": "tokenId",
          "type": "uint256"
        },
        {
          "internalType": "bytes",
          "name": "data",
          "type": "bytes"
        }
      ],
      "name": "safeTransferFrom",
      "outputs": [],
      "stateMutability": "nonpayable",
      "type": "function"
    },
    {
      "inputs": [
        {
          "internalType": "address",
          "name": "operator",
          "type": "address"
        },
        {
          "internalType": "bool",
          "name": "approved",
          "type": "bool"
        }
      ],
      "name": "setApprovalForAll",
      "outputs": [],
      "stateMutability": "nonpayable",
      "type": "function"
    },
    {
      "inputs": [
        {
          "internalType": "bytes4",
          "name": "interfaceId",
          "type": "bytes4"
        }
      ],
      "name": "supportsInterface",
      "outputs": [
        {
          "internalType": "bool",
          "name": "",
          "type": "bool"
        }
      ],
      "stateMutability": "view",
      "type": "function"
    },
    {
      "inputs": [],
      "name": "symbol",
      "outputs": [
        {
          "internalType": "string",
          "name": "",
          "type": "string"
        }
      ],
      "stateMutability": "view",
      "type": "function"
    },
    {
      "inputs": [
        {
          "internalType": "uint256",
          "name": "tokenId",
          "type": "uint256"
        }
      ],
      "name": "tokenURI",
      "outputs": [
        {
          "internalType": "string",
          "name": "",
          "type": "string"
        }
      ],
      "stateMutability": "view",
      "type": "function"
    },
    {
      "inputs": [
        {
          "internalType": "address",
          "name": "from",
          "type": "address"
        },
        {
          "internalType": "address",
          "name": "to",
          "type": "address"
        },
        {
          "internalType": "uint256",
          "name": "tokenId",
          "type": "uint256"
        }
      ],
      "name": "transferFrom",
      "outputs": [],
      "stateMutability": "nonpayable",
      "type": "function"
    },
    {
      "inputs": [
        {
          "internalType": "uint256",
          "name": "_createFee",
          "type": "uint256"
        }
      ],
      "name": "updateCreateFee",
      "outputs": [],
      "stateMutability": "payable",
      "type": "function"
    }
  ],
  "bytecode": "0x6080604052662386f26fc10000600a553480156200001c57600080fd5b506040518060400160405280600f81526020017f4e4654427573696e6573734361726400000000000000000000000000000000008152506040518060400160405280600481526020017f4e46544d000000000000000000000000000000000000000000000000000000008152508160009080519060200190620000a192919062000104565b508060019080519060200190620000ba92919062000104565b50505033600760006101000a81548173ffffffffffffffffffffffffffffffffffffffff021916908373ffffffffffffffffffffffffffffffffffffffff16021790555062000219565b8280546200011290620001e3565b90600052602060002090601f01602090048101928262000136576000855562000182565b82601f106200015157805160ff191683800117855562000182565b8280016001018555821562000182579182015b828111156200018157825182559160200191906001019062000164565b5b50905062000191919062000195565b5090565b5b80821115620001b057600081600090555060010162000196565b5090565b7f4e487b7100000000000000000000000000000000000000000000000000000000600052602260045260246000fd5b60006002820490506001821680620001fc57607f821691505b60208210811415620002135762000212620001b4565b5b50919050565b613b9f80620002296000396000f3fe6080604052600436106101355760003560e01c806372b3b620116100ab578063a22cb4651161006f578063a22cb46514610425578063b88d4fde1461044e578063bfec99e714610477578063c87b56dd146104a2578063e0391b09146104df578063e985e9c51461050a57610135565b806372b3b620146103555780637a9d06df1461038557806395d89b41146103c25780639b1225c4146103ed5780639b6937271461040957610135565b806323b872dd116100fd57806323b872dd146102335780634244a6e21461025c57806342842e0e14610287578063629cb2e4146102b05780636352211e146102db57806370a082311461031857610135565b806301ffc9a71461013a57806306fdde0314610177578063081812fc146101a2578063095ea7b3146101df5780631d66f05d14610208575b600080fd5b34801561014657600080fd5b50610161600480360381019061015c919061279e565b610547565b60405161016e91906127e6565b60405180910390f35b34801561018357600080fd5b5061018c610629565b604051610199919061289a565b60405180910390f35b3480156101ae57600080fd5b506101c960048036038101906101c491906128f2565b6106bb565b6040516101d69190612960565b60405180910390f35b3480156101eb57600080fd5b50610206600480360381019061020191906129a7565b610701565b005b34801561021457600080fd5b5061021d610819565b60405161022a9190612a8e565b60405180910390f35b34801561023f57600080fd5b5061025a60048036038101906102559190612aa9565b61092e565b005b34801561026857600080fd5b5061027161098e565b60405161027e9190612b0b565b60405180910390f35b34801561029357600080fd5b506102ae60048036038101906102a99190612aa9565b610998565b005b3480156102bc57600080fd5b506102c56109b8565b6040516102d29190612c3d565b60405180910390f35b3480156102e757600080fd5b5061030260048036038101906102fd91906128f2565b610d7e565b60405161030f9190612960565b60405180910390f35b34801561032457600080fd5b5061033f600480360381019061033a9190612c5f565b610e30565b60405161034c9190612b0b565b60405180910390f35b61036f600480360381019061036a9190612dc1565b610ee8565b60405161037c9190612b0b565b60405180910390f35b34801561039157600080fd5b506103ac60048036038101906103a791906128f2565b610fb1565b6040516103b99190612a8e565b60405180910390f35b3480156103ce57600080fd5b506103d76110b9565b6040516103e4919061289a565b60405180910390f35b610407600480360381019061040291906128f2565b61114b565b005b610423600480360381019061041e91906128f2565b61133d565b005b34801561043157600080fd5b5061044c60048036038101906104479190612e49565b6113d7565b005b34801561045a57600080fd5b5061047560048036038101906104709190612f2a565b6113ed565b005b34801561048357600080fd5b5061048c61144f565b6040516104999190612b0b565b60405180910390f35b3480156104ae57600080fd5b506104c960048036038101906104c491906128f2565b611460565b6040516104d6919061289a565b60405180910390f35b3480156104eb57600080fd5b506104f4611573565b6040516105019190612c3d565b60405180910390f35b34801561051657600080fd5b50610531600480360381019061052c9190612fad565b61172b565b60405161053e91906127e6565b60405180910390f35b60007f80ac58cd000000000000000000000000000000000000000000000000000000007bffffffffffffffffffffffffffffffffffffffffffffffffffffffff1916827bffffffffffffffffffffffffffffffffffffffffffffffffffffffff1916148061061257507f5b5e139f000000000000000000000000000000000000000000000000000000007bffffffffffffffffffffffffffffffffffffffffffffffffffffffff1916827bffffffffffffffffffffffffffffffffffffffffffffffffffffffff1916145b806106225750610621826117bf565b5b9050919050565b6060600080546106389061301c565b80601f01602080910402602001604051908101604052809291908181526020018280546106649061301c565b80156106b15780601f10610686576101008083540402835291602001916106b1565b820191906000526020600020905b81548152906001019060200180831161069457829003601f168201915b5050505050905090565b60006106c682611829565b6004600083815260200190815260200160002060009054906101000a900473ffffffffffffffffffffffffffffffffffffffff169050919050565b600061070c82610d7e565b90508073ffffffffffffffffffffffffffffffffffffffff168373ffffffffffffffffffffffffffffffffffffffff16141561077d576040517f08c379a0000000000000000000000000000000000000000000000000000000008152600401610774906130c0565b60405180910390fd5b8073ffffffffffffffffffffffffffffffffffffffff1661079c611874565b73ffffffffffffffffffffffffffffffffffffffff1614806107cb57506107ca816107c5611874565b61172b565b5b61080a576040517f08c379a000000000000000000000000000000000000000000000000000000000815260040161080190613152565b60405180910390fd5b610814838361187c565b505050565b610821612632565b600061082d6008611935565b9050600b60008281526020019081526020016000206040518060a0016040529081600082015481526020016001820160009054906101000a900473ffffffffffffffffffffffffffffffffffffffff1673ffffffffffffffffffffffffffffffffffffffff1673ffffffffffffffffffffffffffffffffffffffff1681526020016002820160009054906101000a900473ffffffffffffffffffffffffffffffffffffffff1673ffffffffffffffffffffffffffffffffffffffff1673ffffffffffffffffffffffffffffffffffffffff168152602001600382015481526020016004820160009054906101000a900460ff16151515158152505091505090565b61093f610939611874565b82611943565b61097e576040517f08c379a0000000000000000000000000000000000000000000000000000000008152600401610975906131e4565b60405180910390fd5b6109898383836119d8565b505050565b6000600a54905090565b6109b3838383604051806020016040528060008152506113ed565b505050565b606060006109c66008611935565b90506000805b82811015610ae5573373ffffffffffffffffffffffffffffffffffffffff16600b60006001846109fc9190613233565b815260200190815260200160002060010160009054906101000a900473ffffffffffffffffffffffffffffffffffffffff1673ffffffffffffffffffffffffffffffffffffffff161480610abd57503373ffffffffffffffffffffffffffffffffffffffff16600b6000600184610a739190613233565b815260200190815260200160002060020160009054906101000a900473ffffffffffffffffffffffffffffffffffffffff1673ffffffffffffffffffffffffffffffffffffffff16145b15610ad257600182610acf9190613233565b91505b8080610add90613289565b9150506109cc565b5060008167ffffffffffffffff811115610b0257610b01612c96565b5b604051908082528060200260200182016040528015610b3b57816020015b610b28612632565b815260200190600190039081610b205790505b50905060005b83811015610d74573373ffffffffffffffffffffffffffffffffffffffff16600b6000600184610b719190613233565b815260200190815260200160002060010160009054906101000a900473ffffffffffffffffffffffffffffffffffffffff1673ffffffffffffffffffffffffffffffffffffffff161480610c3257503373ffffffffffffffffffffffffffffffffffffffff16600b6000600184610be89190613233565b815260200190815260200160002060020160009054906101000a900473ffffffffffffffffffffffffffffffffffffffff1673ffffffffffffffffffffffffffffffffffffffff16145b15610d61576000600b6000600184610c4a9190613233565b81526020019081526020016000209050806040518060a0016040529081600082015481526020016001820160009054906101000a900473ffffffffffffffffffffffffffffffffffffffff1673ffffffffffffffffffffffffffffffffffffffff1673ffffffffffffffffffffffffffffffffffffffff1681526020016002820160009054906101000a900473ffffffffffffffffffffffffffffffffffffffff1673ffffffffffffffffffffffffffffffffffffffff1673ffffffffffffffffffffffffffffffffffffffff168152602001600382015481526020016004820160009054906101000a900460ff161515151581525050838381518110610d5457610d536132d2565b5b6020026020010181905250505b8080610d6c90613289565b915050610b41565b5080935050505090565b6000806002600084815260200190815260200160002060009054906101000a900473ffffffffffffffffffffffffffffffffffffffff169050600073ffffffffffffffffffffffffffffffffffffffff168173ffffffffffffffffffffffffffffffffffffffff161415610e27576040517f08c379a0000000000000000000000000000000000000000000000000000000008152600401610e1e9061334d565b60405180910390fd5b80915050919050565b60008073ffffffffffffffffffffffffffffffffffffffff168273ffffffffffffffffffffffffffffffffffffffff161415610ea1576040517f08c379a0000000000000000000000000000000000000000000000000000000008152600401610e98906133df565b60405180910390fd5b600360008373ffffffffffffffffffffffffffffffffffffffff1673ffffffffffffffffffffffffffffffffffffffff168152602001908152602001600020549050919050565b6000600a543414610f2e576040517f08c379a0000000000000000000000000000000000000000000000000000000008152600401610f259061344b565b60405180910390fd5b60008211610f71576040517f08c379a0000000000000000000000000000000000000000000000000000000008152600401610f68906134b7565b60405180910390fd5b610f7b6008611c3f565b6000610f876008611935565b9050610f933382611c55565b610f9d8185611c73565b610fa78184611ce7565b8091505092915050565b610fb9612632565b600b60008381526020019081526020016000206040518060a0016040529081600082015481526020016001820160009054906101000a900473ffffffffffffffffffffffffffffffffffffffff1673ffffffffffffffffffffffffffffffffffffffff1673ffffffffffffffffffffffffffffffffffffffff1681526020016002820160009054906101000a900473ffffffffffffffffffffffffffffffffffffffff1673ffffffffffffffffffffffffffffffffffffffff1673ffffffffffffffffffffffffffffffffffffffff168152602001600382015481526020016004820160009054906101000a900460ff1615151515815250509050919050565b6060600180546110c89061301c565b80601f01602080910402602001604051908101604052809291908181526020018280546110f49061301c565b80156111415780601f1061111657610100808354040283529160200191611141565b820191906000526020600020905b81548152906001019060200180831161112457829003601f168201915b5050505050905090565b6000600b60008381526020019081526020016000206003015490508034146111a8576040517f08c379a000000000000000000000000000000000000000000000000000000000815260040161119f90613523565b60405180910390fd5b6000600b600084815260200190815260200160002060020160009054906101000a900473ffffffffffffffffffffffffffffffffffffffff1690506001600b600085815260200190815260200160002060040160006101000a81548160ff02191690831515021790555033600b600085815260200190815260200160002060020160006101000a81548173ffffffffffffffffffffffffffffffffffffffff021916908373ffffffffffffffffffffffffffffffffffffffff1602179055506112716009611c3f565b61127c3033856119d8565b6112863084610701565b600760009054906101000a900473ffffffffffffffffffffffffffffffffffffffff1673ffffffffffffffffffffffffffffffffffffffff166108fc600a549081150290604051600060405180830381858888f193505050501580156112f0573d6000803e3d6000fd5b508073ffffffffffffffffffffffffffffffffffffffff166108fc349081150290604051600060405180830381858888f19350505050158015611337573d6000803e3d6000fd5b50505050565b3373ffffffffffffffffffffffffffffffffffffffff16600760009054906101000a900473ffffffffffffffffffffffffffffffffffffffff1673ffffffffffffffffffffffffffffffffffffffff16146113cd576040517f08c379a00000000000000000000000000000000000000000000000000000000081526004016113c4906135b5565b60405180910390fd5b80600a8190555050565b6113e96113e2611874565b8383611e24565b5050565b6113fe6113f8611874565b83611943565b61143d576040517f08c379a0000000000000000000000000000000000000000000000000000000008152600401611434906131e4565b60405180910390fd5b61144984848484611f91565b50505050565b600061145b6008611935565b905090565b606061146b82611829565b600060066000848152602001908152602001600020805461148b9061301c565b80601f01602080910402602001604051908101604052809291908181526020018280546114b79061301c565b80156115045780601f106114d957610100808354040283529160200191611504565b820191906000526020600020905b8154815290600101906020018083116114e757829003601f168201915b505050505090506000611515611fed565b905060008151141561152b57819250505061156e565b600082511115611560578082604051602001611548929190613611565b6040516020818303038152906040529250505061156e565b61156984612004565b925050505b919050565b606060006115816008611935565b905060008167ffffffffffffffff81111561159f5761159e612c96565b5b6040519080825280602002602001820160405280156115d857816020015b6115c5612632565b8152602001906001900390816115bd5790505b50905060005b82811015611722576000600b60006001846115f99190613233565b81526020019081526020016000209050806040518060a0016040529081600082015481526020016001820160009054906101000a900473ffffffffffffffffffffffffffffffffffffffff1673ffffffffffffffffffffffffffffffffffffffff1673ffffffffffffffffffffffffffffffffffffffff1681526020016002820160009054906101000a900473ffffffffffffffffffffffffffffffffffffffff1673ffffffffffffffffffffffffffffffffffffffff1673ffffffffffffffffffffffffffffffffffffffff168152602001600382015481526020016004820160009054906101000a900460ff161515151581525050838381518110611703576117026132d2565b5b602002602001018190525050808061171a90613289565b9150506115de565b50809250505090565b6000600560008473ffffffffffffffffffffffffffffffffffffffff1673ffffffffffffffffffffffffffffffffffffffff16815260200190815260200160002060008373ffffffffffffffffffffffffffffffffffffffff1673ffffffffffffffffffffffffffffffffffffffff16815260200190815260200160002060009054906101000a900460ff16905092915050565b60007f01ffc9a7000000000000000000000000000000000000000000000000000000007bffffffffffffffffffffffffffffffffffffffffffffffffffffffff1916827bffffffffffffffffffffffffffffffffffffffffffffffffffffffff1916149050919050565b6118328161206c565b611871576040517f08c379a00000000000000000000000000000000000000000000000000000000081526004016118689061334d565b60405180910390fd5b50565b600033905090565b816004600083815260200190815260200160002060006101000a81548173ffffffffffffffffffffffffffffffffffffffff021916908373ffffffffffffffffffffffffffffffffffffffff160217905550808273ffffffffffffffffffffffffffffffffffffffff166118ef83610d7e565b73ffffffffffffffffffffffffffffffffffffffff167f8c5be1e5ebec7d5bd14f71427d1e84f3dd0314c0f7b2291e5b200ac8c7c3b92560405160405180910390a45050565b600081600001549050919050565b60008061194f83610d7e565b90508073ffffffffffffffffffffffffffffffffffffffff168473ffffffffffffffffffffffffffffffffffffffff1614806119915750611990818561172b565b5b806119cf57508373ffffffffffffffffffffffffffffffffffffffff166119b7846106bb565b73ffffffffffffffffffffffffffffffffffffffff16145b91505092915050565b8273ffffffffffffffffffffffffffffffffffffffff166119f882610d7e565b73ffffffffffffffffffffffffffffffffffffffff1614611a4e576040517f08c379a0000000000000000000000000000000000000000000000000000000008152600401611a45906136a7565b60405180910390fd5b600073ffffffffffffffffffffffffffffffffffffffff168273ffffffffffffffffffffffffffffffffffffffff161415611abe576040517f08c379a0000000000000000000000000000000000000000000000000000000008152600401611ab590613739565b60405180910390fd5b611ac98383836120d8565b611ad460008261187c565b6001600360008573ffffffffffffffffffffffffffffffffffffffff1673ffffffffffffffffffffffffffffffffffffffff1681526020019081526020016000206000828254611b249190613759565b925050819055506001600360008473ffffffffffffffffffffffffffffffffffffffff1673ffffffffffffffffffffffffffffffffffffffff1681526020019081526020016000206000828254611b7b9190613233565b92505081905550816002600083815260200190815260200160002060006101000a81548173ffffffffffffffffffffffffffffffffffffffff021916908373ffffffffffffffffffffffffffffffffffffffff160217905550808273ffffffffffffffffffffffffffffffffffffffff168473ffffffffffffffffffffffffffffffffffffffff167fddf252ad1be2c89b69c2b068fc378daa952ba7f163c4a11628f55a4df523b3ef60405160405180910390a4611c3a8383836120dd565b505050565b6001816000016000828254019250508190555050565b611c6f8282604051806020016040528060008152506120e2565b5050565b611c7c8261206c565b611cbb576040517f08c379a0000000000000000000000000000000000000000000000000000000008152600401611cb2906137ff565b60405180910390fd5b80600660008481526020019081526020016000209080519060200190611ce292919061268f565b505050565b6040518060a001604052808381526020013073ffffffffffffffffffffffffffffffffffffffff1681526020013373ffffffffffffffffffffffffffffffffffffffff16815260200182815260200160011515815250600b60008481526020019081526020016000206000820151816000015560208201518160010160006101000a81548173ffffffffffffffffffffffffffffffffffffffff021916908373ffffffffffffffffffffffffffffffffffffffff16021790555060408201518160020160006101000a81548173ffffffffffffffffffffffffffffffffffffffff021916908373ffffffffffffffffffffffffffffffffffffffff1602179055506060820151816003015560808201518160040160006101000a81548160ff021916908315150217905550905050611e203330846119d8565b5050565b8173ffffffffffffffffffffffffffffffffffffffff168373ffffffffffffffffffffffffffffffffffffffff161415611e93576040517f08c379a0000000000000000000000000000000000000000000000000000000008152600401611e8a9061386b565b60405180910390fd5b80600560008573ffffffffffffffffffffffffffffffffffffffff1673ffffffffffffffffffffffffffffffffffffffff16815260200190815260200160002060008473ffffffffffffffffffffffffffffffffffffffff1673ffffffffffffffffffffffffffffffffffffffff16815260200190815260200160002060006101000a81548160ff0219169083151502179055508173ffffffffffffffffffffffffffffffffffffffff168373ffffffffffffffffffffffffffffffffffffffff167f17307eab39ab6107e8899845ad3d59bd9653f200f220920489ca2b5937696c3183604051611f8491906127e6565b60405180910390a3505050565b611f9c8484846119d8565b611fa88484848461213d565b611fe7576040517f08c379a0000000000000000000000000000000000000000000000000000000008152600401611fde906138fd565b60405180910390fd5b50505050565b606060405180602001604052806000815250905090565b606061200f82611829565b6000612019611fed565b905060008151116120395760405180602001604052806000815250612064565b80612043846122d4565b604051602001612054929190613611565b6040516020818303038152906040525b915050919050565b60008073ffffffffffffffffffffffffffffffffffffffff166002600084815260200190815260200160002060009054906101000a900473ffffffffffffffffffffffffffffffffffffffff1673ffffffffffffffffffffffffffffffffffffffff1614159050919050565b505050565b505050565b6120ec8383612435565b6120f9600084848461213d565b612138576040517f08c379a000000000000000000000000000000000000000000000000000000000815260040161212f906138fd565b60405180910390fd5b505050565b600061215e8473ffffffffffffffffffffffffffffffffffffffff1661260f565b156122c7578373ffffffffffffffffffffffffffffffffffffffff1663150b7a02612187611874565b8786866040518563ffffffff1660e01b81526004016121a99493929190613972565b602060405180830381600087803b1580156121c357600080fd5b505af19250505080156121f457506040513d601f19601f820116820180604052508101906121f191906139d3565b60015b612277573d8060008114612224576040519150601f19603f3d011682016040523d82523d6000602084013e612229565b606091505b5060008151141561226f576040517f08c379a0000000000000000000000000000000000000000000000000000000008152600401612266906138fd565b60405180910390fd5b805181602001fd5b63150b7a0260e01b7bffffffffffffffffffffffffffffffffffffffffffffffffffffffff1916817bffffffffffffffffffffffffffffffffffffffffffffffffffffffff1916149150506122cc565b600190505b949350505050565b6060600082141561231c576040518060400160405280600181526020017f30000000000000000000000000000000000000000000000000000000000000008152509050612430565b600082905060005b6000821461234e57808061233790613289565b915050600a826123479190613a2f565b9150612324565b60008167ffffffffffffffff81111561236a57612369612c96565b5b6040519080825280601f01601f19166020018201604052801561239c5781602001600182028036833780820191505090505b5090505b60008514612429576001826123b59190613759565b9150600a856123c49190613a60565b60306123d09190613233565b60f81b8183815181106123e6576123e56132d2565b5b60200101907effffffffffffffffffffffffffffffffffffffffffffffffffffffffffffff1916908160001a905350600a856124229190613a2f565b94506123a0565b8093505050505b919050565b600073ffffffffffffffffffffffffffffffffffffffff168273ffffffffffffffffffffffffffffffffffffffff1614156124a5576040517f08c379a000000000000000000000000000000000000000000000000000000000815260040161249c90613add565b60405180910390fd5b6124ae8161206c565b156124ee576040517f08c379a00000000000000000000000000000000000000000000000000000000081526004016124e590613b49565b60405180910390fd5b6124fa600083836120d8565b6001600360008473ffffffffffffffffffffffffffffffffffffffff1673ffffffffffffffffffffffffffffffffffffffff168152602001908152602001600020600082825461254a9190613233565b92505081905550816002600083815260200190815260200160002060006101000a81548173ffffffffffffffffffffffffffffffffffffffff021916908373ffffffffffffffffffffffffffffffffffffffff160217905550808273ffffffffffffffffffffffffffffffffffffffff16600073ffffffffffffffffffffffffffffffffffffffff167fddf252ad1be2c89b69c2b068fc378daa952ba7f163c4a11628f55a4df523b3ef60405160405180910390a461260b600083836120dd565b5050565b6000808273ffffffffffffffffffffffffffffffffffffffff163b119050919050565b6040518060a0016040528060008152602001600073ffffffffffffffffffffffffffffffffffffffff168152602001600073ffffffffffffffffffffffffffffffffffffffff168152602001600081526020016000151581525090565b82805461269b9061301c565b90600052602060002090601f0160209004810192826126bd5760008555612704565b82601f106126d657805160ff1916838001178555612704565b82800160010185558215612704579182015b828111156127035782518255916020019190600101906126e8565b5b5090506127119190612715565b5090565b5b8082111561272e576000816000905550600101612716565b5090565b6000604051905090565b600080fd5b600080fd5b60007fffffffff0000000000000000000000000000000000000000000000000000000082169050919050565b61277b81612746565b811461278657600080fd5b50565b60008135905061279881612772565b92915050565b6000602082840312156127b4576127b361273c565b5b60006127c284828501612789565b91505092915050565b60008115159050919050565b6127e0816127cb565b82525050565b60006020820190506127fb60008301846127d7565b92915050565b600081519050919050565b600082825260208201905092915050565b60005b8381101561283b578082015181840152602081019050612820565b8381111561284a576000848401525b50505050565b6000601f19601f8301169050919050565b600061286c82612801565b612876818561280c565b935061288681856020860161281d565b61288f81612850565b840191505092915050565b600060208201905081810360008301526128b48184612861565b905092915050565b6000819050919050565b6128cf816128bc565b81146128da57600080fd5b50565b6000813590506128ec816128c6565b92915050565b6000602082840312156129085761290761273c565b5b6000612916848285016128dd565b91505092915050565b600073ffffffffffffffffffffffffffffffffffffffff82169050919050565b600061294a8261291f565b9050919050565b61295a8161293f565b82525050565b60006020820190506129756000830184612951565b92915050565b6129848161293f565b811461298f57600080fd5b50565b6000813590506129a18161297b565b92915050565b600080604083850312156129be576129bd61273c565b5b60006129cc85828601612992565b92505060206129dd858286016128dd565b9150509250929050565b6129f0816128bc565b82525050565b6000612a018261291f565b9050919050565b612a11816129f6565b82525050565b612a20816127cb565b82525050565b60a082016000820151612a3c60008501826129e7565b506020820151612a4f6020850182612a08565b506040820151612a626040850182612a08565b506060820151612a7560608501826129e7565b506080820151612a886080850182612a17565b50505050565b600060a082019050612aa36000830184612a26565b92915050565b600080600060608486031215612ac257612ac161273c565b5b6000612ad086828701612992565b9350506020612ae186828701612992565b9250506040612af2868287016128dd565b9150509250925092565b612b05816128bc565b82525050565b6000602082019050612b206000830184612afc565b92915050565b600081519050919050565b600082825260208201905092915050565b6000819050602082019050919050565b60a082016000820151612b6860008501826129e7565b506020820151612b7b6020850182612a08565b506040820151612b8e6040850182612a08565b506060820151612ba160608501826129e7565b506080820151612bb46080850182612a17565b50505050565b6000612bc68383612b52565b60a08301905092915050565b6000602082019050919050565b6000612bea82612b26565b612bf48185612b31565b9350612bff83612b42565b8060005b83811015612c30578151612c178882612bba565b9750612c2283612bd2565b925050600181019050612c03565b5085935050505092915050565b60006020820190508181036000830152612c578184612bdf565b905092915050565b600060208284031215612c7557612c7461273c565b5b6000612c8384828501612992565b91505092915050565b600080fd5b600080fd5b7f4e487b7100000000000000000000000000000000000000000000000000000000600052604160045260246000fd5b612cce82612850565b810181811067ffffffffffffffff82111715612ced57612cec612c96565b5b80604052505050565b6000612d00612732565b9050612d0c8282612cc5565b919050565b600067ffffffffffffffff821115612d2c57612d2b612c96565b5b612d3582612850565b9050602081019050919050565b82818337600083830152505050565b6000612d64612d5f84612d11565b612cf6565b905082815260208101848484011115612d8057612d7f612c91565b5b612d8b848285612d42565b509392505050565b600082601f830112612da857612da7612c8c565b5b8135612db8848260208601612d51565b91505092915050565b60008060408385031215612dd857612dd761273c565b5b600083013567ffffffffffffffff811115612df657612df5612741565b5b612e0285828601612d93565b9250506020612e13858286016128dd565b9150509250929050565b612e26816127cb565b8114612e3157600080fd5b50565b600081359050612e4381612e1d565b92915050565b60008060408385031215612e6057612e5f61273c565b5b6000612e6e85828601612992565b9250506020612e7f85828601612e34565b9150509250929050565b600067ffffffffffffffff821115612ea457612ea3612c96565b5b612ead82612850565b9050602081019050919050565b6000612ecd612ec884612e89565b612cf6565b905082815260208101848484011115612ee957612ee8612c91565b5b612ef4848285612d42565b509392505050565b600082601f830112612f1157612f10612c8c565b5b8135612f21848260208601612eba565b91505092915050565b60008060008060808587031215612f4457612f4361273c565b5b6000612f5287828801612992565b9450506020612f6387828801612992565b9350506040612f74878288016128dd565b925050606085013567ffffffffffffffff811115612f9557612f94612741565b5b612fa187828801612efc565b91505092959194509250565b60008060408385031215612fc457612fc361273c565b5b6000612fd285828601612992565b9250506020612fe385828601612992565b9150509250929050565b7f4e487b7100000000000000000000000000000000000000000000000000000000600052602260045260246000fd5b6000600282049050600182168061303457607f821691505b6020821081141561304857613047612fed565b5b50919050565b7f4552433732313a20617070726f76616c20746f2063757272656e74206f776e6560008201527f7200000000000000000000000000000000000000000000000000000000000000602082015250565b60006130aa60218361280c565b91506130b58261304e565b604082019050919050565b600060208201905081810360008301526130d98161309d565b9050919050565b7f4552433732313a20617070726f76652063616c6c6572206973206e6f7420746f60008201527f6b656e206f776e6572206e6f7220617070726f76656420666f7220616c6c0000602082015250565b600061313c603e8361280c565b9150613147826130e0565b604082019050919050565b6000602082019050818103600083015261316b8161312f565b9050919050565b7f4552433732313a2063616c6c6572206973206e6f7420746f6b656e206f776e6560008201527f72206e6f7220617070726f766564000000000000000000000000000000000000602082015250565b60006131ce602e8361280c565b91506131d982613172565b604082019050919050565b600060208201905081810360008301526131fd816131c1565b9050919050565b7f4e487b7100000000000000000000000000000000000000000000000000000000600052601160045260246000fd5b600061323e826128bc565b9150613249836128bc565b9250827fffffffffffffffffffffffffffffffffffffffffffffffffffffffffffffffff0382111561327e5761327d613204565b5b828201905092915050565b6000613294826128bc565b91507fffffffffffffffffffffffffffffffffffffffffffffffffffffffffffffffff8214156132c7576132c6613204565b5b600182019050919050565b7f4e487b7100000000000000000000000000000000000000000000000000000000600052603260045260246000fd5b7f4552433732313a20696e76616c696420746f6b656e2049440000000000000000600082015250565b600061333760188361280c565b915061334282613301565b602082019050919050565b600060208201905081810360008301526133668161332a565b9050919050565b7f4552433732313a2061646472657373207a65726f206973206e6f74206120766160008201527f6c6964206f776e65720000000000000000000000000000000000000000000000602082015250565b60006133c960298361280c565b91506133d48261336d565b604082019050919050565b600060208201905081810360008301526133f8816133bc565b9050919050565b7f53656e6420636f727265637420616d6d6f756e74206f66206c69737400000000600082015250565b6000613435601c8361280c565b9150613440826133ff565b602082019050919050565b6000602082019050818103600083015261346481613428565b9050919050565b7f4d616b652073757265207072696365206973206e6f74206e6567617469766500600082015250565b60006134a1601f8361280c565b91506134ac8261346b565b602082019050919050565b600060208201905081810360008301526134d081613494565b9050919050565b7f506c65617365207375626d6974207468652061736b696e672070726963652e00600082015250565b600061350d601f8361280c565b9150613518826134d7565b602082019050919050565b6000602082019050818103600083015261353c81613500565b9050919050565b7f4f6e6c79206f776e65722063616e2075706461746520746865206c697374696e60008201527f6720707269636500000000000000000000000000000000000000000000000000602082015250565b600061359f60278361280c565b91506135aa82613543565b604082019050919050565b600060208201905081810360008301526135ce81613592565b9050919050565b600081905092915050565b60006135eb82612801565b6135f581856135d5565b935061360581856020860161281d565b80840191505092915050565b600061361d82856135e0565b915061362982846135e0565b91508190509392505050565b7f4552433732313a207472616e736665722066726f6d20696e636f72726563742060008201527f6f776e6572000000000000000000000000000000000000000000000000000000602082015250565b600061369160258361280c565b915061369c82613635565b604082019050919050565b600060208201905081810360008301526136c081613684565b9050919050565b7f4552433732313a207472616e7366657220746f20746865207a65726f2061646460008201527f7265737300000000000000000000000000000000000000000000000000000000602082015250565b600061372360248361280c565b915061372e826136c7565b604082019050919050565b6000602082019050818103600083015261375281613716565b9050919050565b6000613764826128bc565b915061376f836128bc565b92508282101561378257613781613204565b5b828203905092915050565b7f45524337323155524953746f726167653a2055524920736574206f66206e6f6e60008201527f6578697374656e7420746f6b656e000000000000000000000000000000000000602082015250565b60006137e9602e8361280c565b91506137f48261378d565b604082019050919050565b60006020820190508181036000830152613818816137dc565b9050919050565b7f4552433732313a20617070726f766520746f2063616c6c657200000000000000600082015250565b600061385560198361280c565b91506138608261381f565b602082019050919050565b6000602082019050818103600083015261388481613848565b9050919050565b7f4552433732313a207472616e7366657220746f206e6f6e20455243373231526560008201527f63656976657220696d706c656d656e7465720000000000000000000000000000602082015250565b60006138e760328361280c565b91506138f28261388b565b604082019050919050565b60006020820190508181036000830152613916816138da565b9050919050565b600081519050919050565b600082825260208201905092915050565b60006139448261391d565b61394e8185613928565b935061395e81856020860161281d565b61396781612850565b840191505092915050565b60006080820190506139876000830187612951565b6139946020830186612951565b6139a16040830185612afc565b81810360608301526139b38184613939565b905095945050505050565b6000815190506139cd81612772565b92915050565b6000602082840312156139e9576139e861273c565b5b60006139f7848285016139be565b91505092915050565b7f4e487b7100000000000000000000000000000000000000000000000000000000600052601260045260246000fd5b6000613a3a826128bc565b9150613a45836128bc565b925082613a5557613a54613a00565b5b828204905092915050565b6000613a6b826128bc565b9150613a76836128bc565b925082613a8657613a85613a00565b5b828206905092915050565b7f4552433732313a206d696e7420746f20746865207a65726f2061646472657373600082015250565b6000613ac760208361280c565b9150613ad282613a91565b602082019050919050565b60006020820190508181036000830152613af681613aba565b9050919050565b7f4552433732313a20746f6b656e20616c7265616479206d696e74656400000000600082015250565b6000613b33601c8361280c565b9150613b3e82613afd565b602082019050919050565b60006020820190508181036000830152613b6281613b26565b905091905056fea26469706673582212204e7a604ca399a933cc31dff61b45153452c13c1799b1ce43f494e899f615cf4764736f6c63430008090033",
  "linkReferences": {},
  "deployedLinkReferences": {}
}